{
  "contractName": "ICO",
  "abi": [
    {
      "constant": true,
      "inputs": [],
      "name": "rate",
      "outputs": [
        {
          "name": "",
          "type": "uint256"
        }
      ],
      "payable": false,
      "stateMutability": "view",
      "type": "function",
      "signature": "0x2c4e722e"
    },
    {
      "constant": true,
      "inputs": [],
      "name": "token",
      "outputs": [
        {
          "name": "",
          "type": "address"
        }
      ],
      "payable": false,
      "stateMutability": "view",
      "type": "function",
      "signature": "0xfc0c546a"
    },
    {
      "inputs": [
        {
          "name": "_tokenAddress",
          "type": "address"
        }
      ],
      "payable": false,
      "stateMutability": "nonpayable",
      "type": "constructor",
      "signature": "constructor"
    },
    {
      "constant": false,
      "inputs": [
        {
          "name": "_sender",
          "type": "address"
        },
        {
          "name": "_origin",
          "type": "address"
        },
        {
          "name": "_value",
          "type": "uint256"
        },
        {
          "name": "_data",
          "type": "bytes"
        }
      ],
      "name": "tokenFallback",
      "outputs": [
        {
          "name": "",
          "type": "bool"
        }
      ],
      "payable": false,
      "stateMutability": "nonpayable",
      "type": "function",
      "signature": "0x4c123019"
    },
    {
      "constant": false,
      "inputs": [],
      "name": "buyToken",
      "outputs": [],
      "payable": true,
      "stateMutability": "payable",
      "type": "function",
      "signature": "0xa4821719"
    }
  ],
  "bytecode": "0x6080604052600a60015534801561001557600080fd5b5060405160208061051b8339810180604052602081101561003557600080fd5b8101908080519060200190929190505050806000806101000a81548173ffffffffffffffffffffffffffffffffffffffff021916908373ffffffffffffffffffffffffffffffffffffffff16021790555050610485806100966000396000f3fe60806040526004361061005c576000357c0100000000000000000000000000000000000000000000000000000000900480632c4e722e146100615780634c1230191461008c578063a4821719146101b6578063fc0c546a146101c0575b600080fd5b34801561006d57600080fd5b50610076610217565b6040518082815260200191505060405180910390f35b34801561009857600080fd5b5061019c600480360360808110156100af57600080fd5b81019080803573ffffffffffffffffffffffffffffffffffffffff169060200190929190803573ffffffffffffffffffffffffffffffffffffffff169060200190929190803590602001909291908035906020019064010000000081111561011657600080fd5b82018360208201111561012857600080fd5b8035906020019184600183028401116401000000008311171561014a57600080fd5b91908080601f016020809104026020016040519081016040528093929190818152602001838380828437600081840152601f19601f82011690508083019250505050505050919291929050505061021d565b604051808215151515815260200191505060405180910390f35b6101be610227565b005b3480156101cc57600080fd5b506101d5610434565b604051808273ffffffffffffffffffffffffffffffffffffffff1673ffffffffffffffffffffffffffffffffffffffff16815260200191505060405180910390f35b60015481565b6000949350505050565b6000809054906101000a900473ffffffffffffffffffffffffffffffffffffffff1673ffffffffffffffffffffffffffffffffffffffff166370a08231306040518263ffffffff167c0100000000000000000000000000000000000000000000000000000000028152600401808273ffffffffffffffffffffffffffffffffffffffff1673ffffffffffffffffffffffffffffffffffffffff16815260200191505060206040518083038186803b1580156102e157600080fd5b505afa1580156102f5573d6000803e3d6000fd5b505050506040513d602081101561030b57600080fd5b810190808051906020019092919050505060015434021115151561032e57600080fd5b6000809054906101000a900473ffffffffffffffffffffffffffffffffffffffff1673ffffffffffffffffffffffffffffffffffffffff1663a9059cbb3360015434026040518363ffffffff167c0100000000000000000000000000000000000000000000000000000000028152600401808373ffffffffffffffffffffffffffffffffffffffff1673ffffffffffffffffffffffffffffffffffffffff16815260200182815260200192505050602060405180830381600087803b1580156103f657600080fd5b505af115801561040a573d6000803e3d6000fd5b505050506040513d602081101561042057600080fd5b810190808051906020019092919050505050565b6000809054906101000a900473ffffffffffffffffffffffffffffffffffffffff168156fea165627a7a723058200d9155ac48a6158aecc9ad21e04986dbc80281a087f4adc71a0dd5def261f95a0029",
  "source": "pragma solidity ^0.5.0;\n\nimport \"./Token.sol\";\nimport \"./ERC223Interface.sol\";\n//import \"./AccessControl.sol\";\n\ncontract ICO is ERC223Receiver {\n\n    Token public token;\n    uint public rate = 10 ;\n\n    constructor (address _tokenAddress) public {\n        token = Token(_tokenAddress);\n    }\n\n    function tokenFallback(address _sender, address _origin, uint _value, bytes memory _data ) public returns(bool) {\n//        require(_sender == owner);\n    }\n\n    function buyToken() public payable {\n        require((msg.value * rate) <= token.balanceOf(address(this)));\n        token.transfer(msg.sender, (msg.value * rate));\n    }\n\n    //withdraw\n//    function tokenWithdraw() public onlyOwner {\n//        token.transfer(owner, token.balanceOf(address(this)));\n//    }\n//\n//    function ownerAdd()public view returns(address){\n//        return owner;\n//    }\n}",
  "sourcePath": "/home/syed-fahad-hussain/Documents/blockchain/Ethereum/projects/ico/contracts/ICO.sol",
  "compiler": {
    "name": "solc",
    "version": "0.5.2+commit.1df8f40c.Emscripten.clang"
  },
  "schemaVersion": "3.0.0-beta.2",
  "updatedAt": "2019-01-21T12:25:11.636Z",
  "devdoc": {
    "methods": {}
  },
  "userdoc": {
    "methods": {}
  }
}